{
  "contractName": "Notary",
  "abi": [
    {
      "constant": true,
      "inputs": [
        {
          "name": "",
          "type": "bytes32"
        }
      ],
      "name": "myMapping",
      "outputs": [
        {
          "name": "filename",
          "type": "string"
        },
        {
          "name": "timestamp",
          "type": "uint256"
        },
        {
          "name": "checksum",
          "type": "bytes32"
        },
        {
          "name": "comments",
          "type": "string"
        },
        {
          "name": "isSet",
          "type": "bool"
        },
        {
          "name": "setBy",
          "type": "address"
        }
      ],
      "payable": false,
      "stateMutability": "view",
      "type": "function"
    },
    {
      "payable": true,
      "stateMutability": "payable",
      "type": "fallback"
    },
    {
      "anonymous": false,
      "inputs": [
        {
          "indexed": false,
          "name": "_filename",
          "type": "string"
        },
        {
          "indexed": false,
          "name": "_checksum",
          "type": "bytes32"
        },
        {
          "indexed": false,
          "name": "_comments",
          "type": "string"
        },
        {
          "indexed": true,
          "name": "_setBy",
          "type": "address"
        }
      ],
      "name": "NewEntry",
      "type": "event"
    },
    {
      "constant": false,
      "inputs": [
        {
          "name": "_filename",
          "type": "string"
        },
        {
          "name": "_checksum",
          "type": "bytes32"
        },
        {
          "name": "_comments",
          "type": "string"
        }
      ],
      "name": "addEntry",
      "outputs": [],
      "payable": false,
      "stateMutability": "nonpayable",
      "type": "function"
    },
    {
      "constant": true,
      "inputs": [
        {
          "name": "_checksum",
          "type": "bytes32"
        }
      ],
      "name": "entrySet",
      "outputs": [
        {
          "name": "",
          "type": "string"
        },
        {
          "name": "",
          "type": "uint256"
        },
        {
          "name": "",
          "type": "string"
        },
        {
          "name": "",
          "type": "address"
        }
      ],
      "payable": false,
      "stateMutability": "view",
      "type": "function"
    }
  ],
  "bytecode": "0x608060405234801561001057600080fd5b50610aff806100206000396000f300608060405260043610610057576000357c0100000000000000000000000000000000000000000000000000000000900463ffffffff1680630414be801461005957806319f13cbd146101a9578063bba8b63014610266575b005b34801561006557600080fd5b5061008860048036038101908080356000191690602001909291905050506103d0565b6040518080602001858152602001806020018473ffffffffffffffffffffffffffffffffffffffff1673ffffffffffffffffffffffffffffffffffffffff168152602001838103835287818151815260200191508051906020019080838360005b838110156101045780820151818401526020810190506100e9565b50505050905090810190601f1680156101315780820380516001836020036101000a031916815260200191505b50838103825285818151815260200191508051906020019080838360005b8381101561016a57808201518184015260208101905061014f565b50505050905090810190601f1680156101975780820380516001836020036101000a031916815260200191505b50965050505050505060405180910390f35b3480156101b557600080fd5b50610264600480360381019080803590602001908201803590602001908080601f01602080910402602001604051908101604052809392919081815260200183838082843782019150505050505091929192908035600019169060200190929190803590602001908201803590602001908080601f01602080910402602001604051908101604052809392919081815260200183838082843782019150505050505091929192905050506105eb565b005b34801561027257600080fd5b506102956004803603810190808035600019169060200190929190505050610895565b6040518080602001878152602001866000191660001916815260200180602001851515151581526020018473ffffffffffffffffffffffffffffffffffffffff1673ffffffffffffffffffffffffffffffffffffffff168152602001838103835289818151815260200191508051906020019080838360005b8381101561032957808201518184015260208101905061030e565b50505050905090810190601f1680156103565780820380516001836020036101000a031916815260200191505b50838103825286818151815260200191508051906020019080838360005b8381101561038f578082015181840152602081019050610374565b50505050905090810190601f1680156103bc5780820380516001836020036101000a031916815260200191505b509850505050505050505060405180910390f35b6060600060606000806000866000191660001916815260200190815260200160002060040160009054906101000a900460ff16151561040e57600080fd5b60008086600019166000191681526020019081526020016000206000016000808760001916600019168152602001908152602001600020600101546000808860001916600019168152602001908152602001600020600301600080896000191660001916815260200190815260200160002060040160019054906101000a900473ffffffffffffffffffffffffffffffffffffffff16838054600181600116156101000203166002900480601f0160208091040260200160405190810160405280929190818152602001828054600181600116156101000203166002900480156105395780601f1061050e57610100808354040283529160200191610539565b820191906000526020600020905b81548152906001019060200180831161051c57829003601f168201915b50505050509350818054600181600116156101000203166002900480601f0160208091040260200160405190810160405280929190818152602001828054600181600116156101000203166002900480156105d55780601f106105aa576101008083540402835291602001916105d5565b820191906000526020600020905b8154815290600101906020018083116105b857829003601f168201915b5050505050915093509350935093509193509193565b600080836000191660001916815260200190815260200160002060040160009054906101000a900460ff1615151561062257600080fd5b6001600080846000191660001916815260200190815260200160002060040160006101000a81548160ff0219169083151502179055504260008084600019166000191681526020019081526020016000206001018190555082600080846000191660001916815260200190815260200160002060000190805190602001906106ab929190610a2e565b5080600080846000191660001916815260200190815260200160002060030190805190602001906106dd929190610a2e565b50816000808460001916600019168152602001908152602001600020600201816000191690555033600080846000191660001916815260200190815260200160002060040160016101000a81548173ffffffffffffffffffffffffffffffffffffffff021916908373ffffffffffffffffffffffffffffffffffffffff1602179055503373ffffffffffffffffffffffffffffffffffffffff167fc940eb72a14ccd92c8d725b143e8d9e4ab5c1125cfeb27c6d17c34d8e0a461eb8484846040518080602001846000191660001916815260200180602001838103835286818151815260200191508051906020019080838360005b838110156107ed5780820151818401526020810190506107d2565b50505050905090810190601f16801561081a5780820380516001836020036101000a031916815260200191505b50838103825284818151815260200191508051906020019080838360005b83811015610853578082015181840152602081019050610838565b50505050905090810190601f1680156108805780820380516001836020036101000a031916815260200191505b509550505050505060405180910390a2505050565b6000602052806000526040600020600091509050806000018054600181600116156101000203166002900480601f0160208091040260200160405190810160405280929190818152602001828054600181600116156101000203166002900480156109415780601f1061091657610100808354040283529160200191610941565b820191906000526020600020905b81548152906001019060200180831161092457829003601f168201915b505050505090806001015490806002015490806003018054600181600116156101000203166002900480601f0160208091040260200160405190810160405280929190818152602001828054600181600116156101000203166002900480156109eb5780601f106109c0576101008083540402835291602001916109eb565b820191906000526020600020905b8154815290600101906020018083116109ce57829003601f168201915b5050505050908060040160009054906101000a900460ff16908060040160019054906101000a900473ffffffffffffffffffffffffffffffffffffffff16905086565b828054600181600116156101000203166002900490600052602060002090601f016020900481019282601f10610a6f57805160ff1916838001178555610a9d565b82800160010185558215610a9d579182015b82811115610a9c578251825591602001919060010190610a81565b5b509050610aaa9190610aae565b5090565b610ad091905b80821115610acc576000816000905550600101610ab4565b5090565b905600a165627a7a72305820684c75d1b4276f15fdef9cb5a32ec3e9735ea5410392d9371796339f33cbcd9c0029",
  "source": "pragma solidity ^0.4.23;\n\ncontract Notary {\n    \n    function() external payable{\n  \n    }\n    struct MyNotaryEntry {\n        string filename;\n        uint timestamp;\n        bytes32 checksum;\n        string comments;\n        bool isSet;\n        address setBy;\n    }\n    \n    mapping (bytes32 => MyNotaryEntry) public myMapping;\n    \n    event NewEntry(string _filename,bytes32 _checksum,string _comments,address indexed _setBy);\n    \n    // \"file2\" , 0xf4c2178860817a2c25d2cb3185aa25779b0ecaf17c30845926218e17a18a9f89, \"this is a comment2\"\n    \n    function addEntry(string memory _filename,bytes32 _checksum,string memory  _comments) public {\n        \n        require(!myMapping[_checksum].isSet);\n        \n        myMapping[_checksum].isSet = true;\n        myMapping[_checksum].timestamp = now;\n        myMapping[_checksum].filename = _filename;\n        myMapping[_checksum].comments = _comments;\n        myMapping[_checksum].checksum = _checksum;\n        myMapping[_checksum].setBy = msg.sender;\n        \n        emit NewEntry(_filename,_checksum,_comments,msg.sender);\n    \n    }\n    \n    function entrySet(bytes32 _checksum) public view returns(string memory,uint,string memory,address) {\n        \n        require(myMapping[_checksum].isSet);\n        \n        return (myMapping[_checksum].filename,myMapping[_checksum].timestamp,myMapping[_checksum].comments,myMapping[_checksum].setBy);\n    \n    }\n}",
  "sourcePath": "/Users/lakshitha/projects/blockchain/truffle-demo/contracts/Notary.sol",
  "compiler": {
    "name": "solc",
    "version": "0.4.24+commit.e67f0147.Emscripten.clang"
  },
  "schemaVersion": "2.0.1",
  "updatedAt": "2018-12-10T10:52:06.736Z"
}